:100000000C9434000C9453000C9451000C94510047
:100010000C9451000C9451000C9451000C9451001C
:100020000C9451000C9451000C9451000C9451000C
:100030000C9451000C9451000C94EC010C94510060
:100040000C9451000C9451000C94B5020C94510086
:100050000C9451000C9451000C9451000C945100DC
:100060000C9451000C94510011241FBECFEFD8E026
:10007000DEBFCDBF11E0A0E0B1E0EEE8FEE002C0DF
:1000800005900D92A833B107D9F722E0A8E3B1E0BB
:1000900001C01D92A233B207E1F70E94F9000C944F
:1000A00045070C9400001F920F920FB60F92112477
:1000B000CF92DF92EF92FF922F933F934F935F93F4
:1000C0006F937F938F939F93AF93BF93EF93FF9320
:1000D000F8948091B6018F5F873018F48093B60151
:1000E00036C01092B6010E94E1016B017C01609361
:1000F0009E0170939F018093A0019093A101809134
:10010000A2019091A301A091A401B091A501A70122
:100110009601281B390B4A0B5B0BCA01B9010E94DF
:10012000A7039B01AC0160E070E68AE697E40E94B9
:10013000FF020E9471037093BA016093B901C092EB
:10014000A201D092A301E092A401F092A5017894BB
:10015000FF91EF91BF91AF919F918F917F916F919F
:100160005F914F913F912F91FF90EF90DF90CF9053
:100170000F900FBE0F901F90189584B1826284B9C2
:1001800052980E948C02E9E6F0E0808183608083CF
:10019000E89A0E94D3010E94AF02789480E091E037
:1001A0000E94A00208958091B7019091B80120911A
:1001B000B9013091BA01AC014A50510924173507F1
:1001C00044F480913801843678F48F5F809338014D
:1001D0000BC00A96821793073CF48091380188235C
:1001E00019F0815080933801809138010E9480027B
:1001F00008950E94BD00312C0F2EFAE0AF2EF1E0E1
:10020000BF2EF02DCAE3D1E00F2EF7E1CF2EF1E0A3
:10021000DF2EF02D0F2EF2E2EF2EF1E0FF2EF02D6B
:10022000232C0C2F1D2F0F2EFDE28F2EF1E09F2E81
:10023000F02D0E94E1016093AE017093AF018093B5
:10024000B0019093B1014090B2015090B301609021
:10025000B4017090B5019B01AC0124193509460920
:10026000570929013A0134EF431631E0530661047E
:100270007104B0F06093B2017093B3018093B40144
:100280009093B5018091390191E08111922D909365
:100290003901811102C02D9A01C02D980E94D3000E
:1002A0000E94E1016093A6017093A7018093A801C9
:1002B0009093A9014090AA015090AB016090AC01CD
:1002C0007090AD019B01AC0124193509460957090D
:1002D00029013A0134EF431631E0530661047104F9
:1002E000E8F16093AA017093AB018093AC01909305
:1002F000AD019F938F937F936F93BF92AF92DF93E4
:10030000CF930E945B04802F912F0E94A0028091C6
:10031000BA018F938091B9018F93DF92CF92DF93CF
:10032000CF930E945B04802F912F0E94A0028091A6
:1003300038011F928F93FF92EF92DF93CF930E9429
:100340005B04802F912F0E94A0024DB75EB74C5ED8
:100350005F4F0FB6F8945EBF0FBE4DBF8091CB01CB
:10036000882309F466CF3092CB018EEC91E00E9495
:10037000FE028EEC91E00E9435048093B7019093C9
:10038000B8019F938F939F928F92DF93CF930E9498
:100390005B04CE010E94A0020F900F900F900F906F
:1003A0000F900F9046CF84B5826084BD87EC87BDE7
:1003B000EEE6F0E080818260808385B5826085BD55
:1003C0000895F8946091C7017091C8018091C901A6
:1003D0009091CA01789408951F920F920FB60F92D0
:1003E00011244F935F936F937F938F939F93AF935A
:1003F000BF938091C3019091C401A091C501B091B8
:10040000C6010196A11DB11D8093C3019093C40143
:10041000A093C501B093C6018091C3019091C4011E
:10042000A091C501B091C6010A97A105B105D8F008
:100430001092C3011092C4011092C5011092C6011E
:100440008091C7019091C801A091C901B091CA01E2
:100450000196A11DB11D8093C7019093C801A0937F
:10046000C901B093CA018091BF019091C001A091D0
:10047000C101B091C2010196A11DB11D8093BF01C0
:100480009093C001A093C101B093C2018091BF01BC
:100490009091C001A091C101B091C2018436910533
:1004A000A105B10550F01092BF011092C001109249
:1004B000C1011092C201299A16C04091BF0150910A
:1004C000C0016091C1017091C2018091BB01909106
:1004D000BC01A091BD01B091BE01481759076A0740
:1004E0007B0708F02998BF91AF919F918F917F91E1
:1004F0006F915F914F910F900FBE0F901F901895C5
:1005000090E0A0E0B0E08093BB019093BC01A09389
:10051000BD01B093BE0108951092C50087E6809397
:10052000C40088E18093C10086E08093C2000895F2
:10053000E0ECF0E0908195FFFDCF8093C600089538
:10054000CF93DF93EC018881882331F021960E94BC
:10055000980289918111FBCFDF91CF910895E1EC51
:10056000F0E080818068808308951F920F920FB61B
:100570000F9211242F934F935F938F939F93EF9339
:10058000FF932091C6008091C0008C7159F5809135
:10059000CC019091CD018436910520F01092CD01CF
:1005A0001092CC012A3079F4E091CC01F091CD0188
:1005B000E253FE4F108281E08093CB011092CD0177
:1005C0001092CC010FC08091CC019091CD01AC0173
:1005D0004F5F5F4F5093CD014093CC01FC01E2533C
:1005E000FE4F2083FF91EF919F918F915F914F91EB
:1005F0002F910F900FBE0F901F90189508950E9495
:1006000013030C94FB030E94F40358F00E94ED03C3
:1006100040F029F45F3F29F00C94E40351110C944D
:100620002F040C94EA030E940C0468F39923B1F39D
:10063000552391F3951B550BBB27AA276217730708
:10064000840738F09F5F5F4F220F331F441FAA1F9C
:10065000A9F335D00E2E3AF0E0E832D09150504058
:10066000E695001CCAF72BD0FE2F29D0660F771F06
:10067000881FBB1F261737074807AB07B0E809F0EC
:10068000BB0B802DBF01FF2793585F4F3AF09E3F71
:10069000510578F00C94E4030C942F045F3FE4F3CD
:1006A000983ED4F3869577956795B795F7959F5FB4
:1006B000C9F7880F911D9695879597F90895E1E000
:1006C000660F771F881FBB1F621773078407BA075F
:1006D00020F0621B730B840BBA0BEE1F88F7E095BA
:1006E00008950E9478036894B1110C942F04089522
:1006F0000E94140488F09F5798F0B92F9927B7519A
:10070000B0F0E1F0660F771F881F991F1AF0BA95B5
:10071000C9F714C0B13091F00E942E04B1E00895E1
:100720000C942E04672F782F8827B85F39F0B93FD3
:10073000CCF3869577956795B395D9F73EF4909568
:100740008095709561957F4F8F4F9F4F0895E894E6
:1007500009C097FB3EF490958095709561957F4F09
:100760008F4F9F4F9923A9F0F92F96E9BB279395B7
:10077000F695879577956795B795F111F8CFFAF4C7
:10078000BB0F11F460FF1BC06F5F7F4F8F4F9F4FF8
:1007900016C0882311F096E911C0772321F09EE856
:1007A000872F762F05C0662371F096E8862F70E0BC
:1007B00060E02AF09A95660F771F881FDAF7880F96
:1007C0009695879597F9089597F99F6780E870E067
:1007D00060E008959FEF80EC089500240A941616B7
:1007E000170618060906089500240A94121613061F
:1007F000140605060895092E0394000C11F48823AD
:1008000052F0BB0F40F4BF2B11F460FF04C06F5FC8
:100810007F4F8F4F9F4F089557FD9058440F551F9E
:1008200059F05F3F71F04795880F97FB991F61F072
:100830009F3F79F087950895121613061406551FE9
:10084000F2CF4695F1DF08C0161617061806991F55
:10085000F1CF86957105610508940895E894BB274A
:1008600066277727CB0197F90895FC0188279927F8
:10087000E89421912032E9F3293010F02E30C8F3AA
:100880002B3241F02D3239F4689404C00E94530495
:10089000820F911D219120532A30C0F31EF49095B0
:1008A00081959F4F08957AE0979F902D879F802D87
:1008B000910D11240895AEE0B0E0E1E6F4E00C946F
:1008C0001C070D891E8986E08C831A8309838FEFAC
:1008D0009FE79E838D83AE01475E5F4F6F89788D62
:1008E000CE0101960E947D04EF81F885E00FF11F93
:1008F00010822E96E4E00C943807ABE0B0E0E3E819
:10090000F4E00C940E076C017B018A01FC01178254
:100910001682838181FFCCC1CE0101963C01F60194
:100920009381F70193FD859193FF81917F01882346
:1009300009F4BAC1853239F493FD859193FF819111
:100940007F01853229F4B60190E00E947406E7CF5A
:10095000912C212C312CFFE1F315D8F08B3279F05A
:1009600038F4803279F08332A1F4232D20611DC048
:100970008D3261F0803369F4232D216016C0832D00
:100980008260382EE32DE4603E2E2AC0F32DF860FD
:100990001DC037FC2DC020ED280F2A3040F08E32CC
:1009A000B9F436FC81C1232D2064322E19C036FEE5
:1009B00006C08AE0989E200D1124922E11C0EAE014
:1009C0002E9E200D1124222EF32DF0623F2E08C002
:1009D0008C3621F4832D8068382E02C0883641F48D
:1009E000F70193FD859193FF81917F018111B3CF31
:1009F000982F9F7D9554933028F40C5F1F4F9FE3F1
:100A000099830DC0833631F0833771F0833509F057
:100A100059C021C0F801808189830E5F1F4F88244F
:100A20008394912C530113C02801F2E04F0E511C06
:100A3000F801A080B18036FE03C0692D70E002C0CD
:100A40006FEF7FEFC5010E9469064C018201F32D13
:100A5000FF773F2E16C0280122E0420E511CF801FC
:100A6000A080B18036FE03C0692D70E002C06FEF38
:100A70007FEFC5010E945E064C01F32DF0683F2E0A
:100A8000820133FC1BC0822D90E088169906B0F4D9
:100A9000B60180E290E00E9474062A94F4CFF5013A
:100AA00037FC859137FE81915F01B60190E00E948D
:100AB000740621102A9421E0821A9108811491046D
:100AC00071F7E8C0843611F0893641F5F80137FE38
:100AD00007C060817181828193810C5F1F4F08C0C4
:100AE00060817181072E000C880B990B0E5F1F4FE0
:100AF000F32DFF763F2E97FF09C090958095709556
:100B000061957F4F8F4F9F4FF0683F2E2AE030E076
:100B1000A3010E94B006882E861845C0853731F49F
:100B2000232D2F7EB22E2AE030E025C0932D997F11
:100B3000B92E8F36C1F018F4883579F0B5C08037FA
:100B400019F0883721F0B0C0E92FE061BE2EB4FE65
:100B50000DC0FB2DF460BF2E09C034FE0AC0292F42
:100B60002660B22E06C028E030E005C020E130E06B
:100B700002C020E132E0F801B7FE07C06081718158
:100B8000828193810C5F1F4F06C06081718180E07C
:100B900090E00E5F1F4FA3010E94B006882E8618BA
:100BA000FB2DFF773F2E36FE0DC0232D2E7FA22E6C
:100BB000891458F434FE0BC032FC09C0832D8E7E9C
:100BC000A82E05C0B82CA32C03C0B82C01C0B92C8A
:100BD000A4FE0FC0FE01E80DF11D8081803321F4D9
:100BE0009A2D997EA92E09C0A2FE06C0B394B39493
:100BF00004C08A2D867809F0B394A3FC11C0A0FE2E
:100C000006C0B21488F4280C922C9B180EC0B214A3
:100C100060F4B60180E290E00E947406B394F7CFCE
:100C2000B21418F42B1802C0982C212CA4FE10C06A
:100C3000B60180E390E00E947406A2FE17C0A1FCFA
:100C400003C088E790E002C088E590E0B6010CC0E0
:100C50008A2D867859F0A1FE02C08BE201C080E2A5
:100C6000A7FC8DE2B60190E00E947406891438F466
:100C7000B60180E390E00E9474069A94F7CF8A94BC
:100C8000F301E80DF11D8081B60190E00E94740629
:100C90008110F5CF222009F442CEB60180E290E027
:100CA0000E9474062A94F6CFF6018681978102C0CD
:100CB0008FEF9FEF2B96E2E10C942A07FC01059041
:100CC000615070400110D8F7809590958E0F9F1F4E
:100CD0000895FC016150704001900110D8F7809593
:100CE00090958E0F9F1F08950F931F93CF93DF93BF
:100CF000FB01238121FD03C08FEF9FEF2CC022FF5A
:100D000016C046815781248135814217530744F428
:100D1000A081B1819D012F5F3F4F318320838C9350
:100D2000268137812F5F3F4F3783268314C08B0185
:100D3000EC01FB010084F185E02D0995892BE1F69A
:100D4000D80116968D919C911797019617969C93B2
:100D50008E931697CE01DF91CF911F910F91089539
:100D6000FA01AA27283051F1203181F1E8946F93DC
:100D70006E7F6E5F7F4F8F4F9F4FAF4FB1E03ED082
:100D8000B4E03CD0670F781F891F9A1FA11D680F20
:100D9000791F8A1F911DA11D6A0F711D811D911D53
:100DA000A11D20D009F468943F912AE0269F1124C8
:100DB0003019305D3193DEF6CF010895462F47702C
:100DC000405D4193B3E00FD0C9F7F6CF462F4F7087
:100DD000405D4A3318F0495D31FD4052419302D0E5
:100DE000A9F7EACFB4E0A69597958795779567958B
:100DF000BA95C9F700976105710508959B01AC018B
:100E00000A2E06945795479537952795BA95C9F7B1
:100E1000620F731F841F951FA01D08952F923F928C
:100E20004F925F926F927F928F929F92AF92BF92FA
:100E3000CF92DF92EF92FF920F931F93CF93DF93A6
:100E4000CDB7DEB7CA1BDB0B0FB6F894DEBF0FBE03
:100E5000CDBF09942A88398848885F846E847D8450
:100E60008C849B84AA84B984C884DF80EE80FD8052
:100E70000C811B81AA81B981CE0FD11D0FB6F894C8
:0E0E8000DEBF0FBECDBFED010895F894FFCF89
:100E8E0057454C434F4D450D0A0054696D653A2048
:100E9E00256C752009090052504D3A202575200900
:100EAE00090050574D3A202575200D0A0053502049
:080EBE003D202575200D0A00FE
:00000001FF
