:100000000C9434000C9453000C9451000C94510047
:100010000C9451000C9451000C9451000C9451001C
:100020000C9451000C9451000C9451000C9451000C
:100030000C9451000C9451000C946A010C945100E2
:100040000C9451000C9451000C9451000C945100EC
:100050000C9451000C9451000C9451000C945100DC
:100060000C9451000C94510011241FBECFEFD8E026
:10007000DEBFCDBF11E0A0E0B1E0E0E9FCE002C0EE
:1000800005900D92A631B107D9F721E0A6E1B1E0C4
:1000900001C01D92AF39B207E1F70E94F7000C943E
:1000A00046060C9400001F920F920FB60F92112477
:1000B000CF92DF92EF92FF922F933F934F935F93F4
:1000C0006F937F938F939F93AF93BF93EF93FF9320
:1000D000F89480918C018F5F873018F480938C01A5
:1000E00036C010928C010E945F016B017C0160930D
:1000F0007C0170937D0180937E0190937F018091BC
:10010000800190918101A0918201B0918301A701AA
:100110009601281B390B4A0B5B0BCA01B9010E94DF
:10012000CE029B01AC0160E070E68AE697E40E9493
:100130002D020E949F0270938E0160938D01C092E8
:100140008001D0928101E0928201F0928301789443
:10015000FF91EF91BF91AF919F918F917F916F919F
:100160005F914F913F912F91FF90EF90DF90CF9053
:100170000F900FBE0F901F90189584B1826284B9C2
:1001800052980E940A02E9E6F0E080818360808351
:10019000E89A0E945101789482E091E00E941E0248
:1001A0000895809100019091010120918D0130917D
:1001B0008E01AC014A5051092417350740F4809153
:1001C0001601843678F48F5F809316010BC00A966F
:1001D0008217930738F480911601882319F0815013
:1001E00080931601809116010E94FE0108950E94DD
:1001F000BD00BB24B394A12C0CE011E0C8E1D1E018
:100200000E945F0160938401709385018093860151
:1002100090938701C0908801D0908901E0908A0175
:10022000F0908B01DC01CB018C199D09AE09BF094F
:100230008A3F9105A105B10518F3809117019B2D07
:1002400081119A2D90931701811102C02D9A01C03E
:100250002D988091840190918501A0918601B091A3
:1002600087018093880190938901A0938A01B093BC
:100270008B010E94D10080918E018F9380918D011E
:100280008F931F930F93DF93CF930E945C03CE0154
:100290000E941E020F900F900F900F900F900F90E2
:1002A000AFCF84B5826084BD87EC87BDEEE6F0E019
:1002B00080818260808385B5826085BD0895F894D1
:1002C00060919B0170919C0180919D0190919E0194
:1002D000789408951F920F920FB60F9211244F93A6
:1002E0005F936F937F938F939F93AF93BF9380910F
:1002F000970190919801A0919901B0919A0101966E
:10030000A11DB11D8093970190939801A09399012D
:10031000B0939A018091970190919801A0919901D1
:10032000B0919A010A97A105B105D8F010929701F2
:10033000109298011092990110929A0180919B015C
:1003400090919C01A0919D01B0919E010196A11DEB
:10035000B11D80939B0190939C01A0939D01B0934C
:100360009E018091930190919401A0919501B0918B
:1003700096010196A11DB11D809393019093940164
:10038000A0939501B093960180919301909194016F
:10039000A0919501B091960184369105A105B10512
:1003A00050F01092930110929401109295011092C6
:1003B0009601299A16C04091930150919401609141
:1003C00095017091960180918F0190919001A0917B
:1003D0009101B0919201481759076A077B0708F00D
:1003E0002998BF91AF919F918F917F916F915F916C
:1003F0004F910F900FBE0F901F90189590E0A0E0C6
:10040000B0E080938F0190939001A0939101B093FD
:10041000920108951092C50087E68093C40088E198
:100420008093C10086E08093C2000895E0ECF0E084
:10043000908195FFFDCF8093C6000895CF93DF9301
:10044000EC018881882331F021960E94160289915F
:100450008111FBCFDF91CF9108950E9441020C944E
:1004600022030E941B0358F00E94140340F029F459
:100470005F3F29F00C940B0351110C9456030C941C
:1004800011030E94330368F39923B1F3552391F3C9
:10049000951B550BBB27AA2762177307840738F0F3
:1004A0009F5F5F4F220F331F441FAA1FA9F335D050
:1004B0000E2E3AF0E0E832D091505040E695001C04
:1004C000CAF72BD0FE2F29D0660F771F881FBB1FBE
:1004D000261737074807AB07B0E809F0BB0B802D9C
:1004E000BF01FF2793585F4F3AF09E3F510578F0C8
:1004F0000C940B030C9456035F3FE4F3983ED4F343
:10050000869577956795B795F7959F5FC9F7880F9B
:10051000911D9695879597F90895E1E0660F771FED
:10052000881FBB1F621773078407BA0720F0621B7E
:10053000730B840BBA0BEE1F88F7E09508950E94A9
:100540003B0388F09F5798F0B92F9927B751B0F027
:10055000E1F0660F771F881F991F1AF0BA95C9F747
:1005600014C0B13091F00E945503B1E008950C948D
:100570005503672F782F8827B85F39F0B93FCCF340
:10058000869577956795B395D9F73EF490958095C4
:10059000709561957F4F8F4F9F4F0895E89409C0E4
:1005A00097FB3EF490958095709561957F4F8F4FA6
:1005B0009F4F9923A9F0F92F96E9BB279395F695BC
:1005C000879577956795B795F111F8CFFAF4BB0F3A
:1005D00011F460FF1BC06F5F7F4F8F4F9F4F16C09E
:1005E000882311F096E911C0772321F09EE8872F28
:1005F000762F05C0662371F096E8862F70E060E0E4
:100600002AF09A95660F771F881FDAF7880F96955C
:10061000879597F9089597F99F6780E870E060E003
:1006200008959FEF80EC089500240A94161617068B
:1006300018060906089500240A94121613061406D3
:1006400005060895092E0394000C11F4882352F036
:10065000BB0F40F4BF2B11F460FF04C06F5F7F4FEE
:100660008F4F9F4F089557FD9058440F551F59F0D5
:100670005F3F71F04795880F97FB991F61F09F3F8F
:1006800079F087950895121613061406551FF2CFB8
:100690004695F1DF08C0161617061806991FF1CF08
:1006A00086957105610508940895E894BB2766272F
:1006B0007727CB0197F90895AEE0B0E0E2E6F3E0EA
:1006C0000C941D060D891E8986E08C831A8309838C
:1006D0008FEF9FE79E838D83AE01475E5F4F6F89EB
:1006E000788DCE0101960E947E03EF81F885E00FA0
:1006F000F11F10822E96E4E00C943906ABE0B0E0D6
:10070000E4E8F3E00C940F066C017B018A01FC0124
:1007100017821682838181FFCCC1CE0101963C01F4
:10072000F6019381F70193FD859193FF81917F01FC
:10073000882309F4BAC1853239F493FD859193FF7A
:1007400081917F01853229F4B60190E00E94750500
:10075000E7CF912C212C312CFFE1F315D8F08B320F
:1007600079F038F4803279F08332A1F4232D2061BE
:100770001DC08D3261F0803369F4232D216016C0D5
:10078000832D8260382EE32DE4603E2E2AC0F32DA7
:10079000F8601DC037FC2DC020ED280F2A3040F036
:1007A0008E32B9F436FC81C1232D2064322E19C05B
:1007B00036FE06C08AE0989E200D1124922E11C0AC
:1007C000EAE02E9E200D1124222EF32DF0623F2E02
:1007D00008C08C3621F4832D8068382E02C08836FC
:1007E00041F4F70193FD859193FF81917F01811180
:1007F000B3CF982F9F7D9554933028F40C5F1F4FF3
:100800009FE399830DC0833631F0833771F08335D0
:1008100009F059C021C0F801808189830E5F1F4F04
:1008200088248394912C530113C02801F2E04F0EC9
:10083000511CF801A080B18036FE03C0692D70E024
:1008400002C06FEF7FEFC5010E946A054C01820173
:10085000F32DFF773F2E16C0280122E0420E511CD7
:10086000F801A080B18036FE03C0692D70E002C09F
:100870006FEF7FEFC5010E945F054C01F32DF0681B
:100880003F2E820133FC1BC0822D90E08816990612
:10089000B0F4B60180E290E00E9475052A94F4CF8E
:1008A000F50137FC859137FE81915F01B60190E03B
:1008B0000E94750521102A9421E0821A9108811462
:1008C000910471F7E8C0843611F0893641F5F801DA
:1008D00037FE07C060817181828193810C5F1F4F59
:1008E00008C060817181072E000C880B990B0E5F88
:1008F0001F4FF32DFF763F2E97FF09C090958095EF
:10090000709561957F4F8F4F9F4FF0683F2E2AE083
:1009100030E0A3010E94B105882E861845C08537B6
:1009200031F4232D2F7EB22E2AE030E025C0932D06
:10093000997FB92E8F36C1F018F4883579F0B5C09B
:10094000803719F0883721F0B0C0E92FE061BE2E62
:10095000B4FE0DC0FB2DF460BF2E09C034FE0AC0EA
:10096000292F2660B22E06C028E030E005C020E125
:1009700030E002C020E132E0F801B7FE07C060813C
:100980007181828193810C5F1F4F06C060817181EC
:1009900080E090E00E5F1F4FA3010E94B105882EFA
:1009A0008618FB2DFF773F2E36FE0DC0232D2E7FA0
:1009B000A22E891458F434FE0BC032FC09C0832DDA
:1009C0008E7EA82E05C0B82CA32C03C0B82C01C065
:1009D000B92CA4FE0FC0FE01E80DF11D808180330B
:1009E00021F49A2D997EA92E09C0A2FE06C0B394C7
:1009F000B39404C08A2D867809F0B394A3FC11C087
:100A0000A0FE06C0B21488F4280C922C9B180EC0CD
:100A1000B21460F4B60180E290E00E947505B394D0
:100A2000F7CFB21418F42B1802C0982C212CA4FE76
:100A300010C0B60180E390E00E947505A2FE17C0C9
:100A4000A1FC03C088E790E002C088E590E0B60111
:100A50000CC08A2D867859F0A1FE02C08BE201C03D
:100A600080E2A7FC8DE2B60190E00E947505891432
:100A700038F4B60180E390E00E9475059A94F7CFB0
:100A80008A94F301E80DF11D8081B60190E00E9487
:100A900075058110F5CF222009F442CEB60180E21F
:100AA00090E00E9475052A94F6CFF6018681978121
:100AB00002C08FEF9FEF2B96E2E10C942B06FC0116
:100AC0000590615070400110D8F7809590958E0F79
:100AD0009F1F0895FC016150704001900110D8F7EC
:100AE000809590958E0F9F1F08950F931F93CF931E
:100AF000DF93FB01238121FD03C08FEF9FEF2CC00B
:100B000022FF16C046815781248135814217530741
:100B100044F4A081B1819D012F5F3F4F3183208339
:100B20008C93268137812F5F3F4F3783268314C0F4
:100B30008B01EC01FB010084F185E02D0995892BE7
:100B4000E1F6D80116968D919C911797019617960C
:100B50009C938E931697CE01DF91CF911F910F91A9
:100B60000895FA01AA27283051F1203181F1E89443
:100B70006F936E7F6E5F7F4F8F4F9F4FAF4FB1E090
:100B80003ED0B4E03CD0670F781F891F9A1FA11D8B
:100B9000680F791F8A1F911DA11D6A0F711D811D8C
:100BA000911DA11D20D009F468943F912AE0269F51
:100BB00011243019305D3193DEF6CF010895462FB0
:100BC0004770405D4193B3E00FD0C9F7F6CF462F91
:100BD0004F70405D4A3318F0495D31FD40524193FA
:100BE00002D0A9F7EACFB4E0A695979587957795B7
:100BF0006795BA95C9F700976105710508959B013E
:100C0000AC010A2E06945795479537952795BA95C6
:100C1000C9F7620F731F841F951FA01D08952F929F
:100C20003F924F925F926F927F928F929F92AF927C
:100C3000BF92CF92DF92EF92FF920F931F93CF93C9
:100C4000DF93CDB7DEB7CA1BDB0B0FB6F894DEBF60
:100C50000FBECDBF09942A88398848885F846E8486
:100C60007D848C849B84AA84B984C884DF80EE80D0
:100C7000FD800C811B81AA81B981CE0FD11D0FB6D9
:100C8000F894DEBF0FBECDBFED010895F894FFCFFD
:100C9000E80357454C434F4D450D0A00257520523A
:060CA000504D200D0A007A
:00000001FF
