S0180000726F746174696F6E5F636F6E74726F6C2E737265633C
S11300000C9434000C9453000C9451000C94510043
S11300100C9451000C9451000C9451000C94510018
S11300200C9451000C9451000C9451000C94510008
S11300300C9451000C9451000C94FE000C9451004B
S11300400C9451000C9451000C9451000C945100E8
S11300500C9451000C9451000C9451000C945100D8
S11300600C9451000C94510011241FBECFEFD8E022
S1130070DEBFCDBF11E0A0E0B1E0E0EEFBE002C0E6
S113008005900D92A231B107D9F721E0A2E1B1E0C8
S113009001C01D92A038B207E1F70E9480000C94C1
S11300A0EE050C9400001F920F920FB60F921124CC
S11300B08F939F93F89480917A0190917B0101969C
S11300C090937B0180937A0178949F918F910F9004
S11300D00FBE0F901F901895219A52980E942301E9
S11300E00E94C200E9E6F0E0808183608083E89AA0
S11300F00E94E500789480E091E00E943701089521
S11301000E946C000F2EF8EE8F2EF3E09F2EA12C90
S1130110B12CF02D0AE011E0C2E1D1E08AE090E0D8
S11301200E94CD000E94F3006B017C016093760174
S1130130709377018093780190937901A5019401DC
S11301400E94E202672B682B692B41F7C701B601B5
S1130150A50194010E94E2025F934F933F932F9372
S11301601F930F93DF93CF930E940403CE010E9449
S113017037018DB79EB708960FB6F8949EBF0FBE91
S11301808DBFCCCFE0E8F0E0808181688083E1E836
S1130190F0E08081896080830895BC0180E090E074
S11301A00E94E70120E030E048EC52E40E9446015E
S11301B020E030E04FE753E40E9475020E94B8014A
S11301C07093890060938800089584B5826084BD2B
S11301D089EF87BDEEE6F0E080818260808385B59B
S11301E0836085BD0895F89460917C0170917D01D0
S11301F080917E0190917F01789408951F920F92CF
S11302000FB60F9211248F939F93AF93BF93809156
S11302107C0190917D01A0917E01B0917F010196B6
S1130220A11DB11D80937C0190937D01A0937E015B
S1130230B0937F01BF91AF919F918F910F900FBEAB
S11302400F901F9018951092C50087E68093C40004
S113025088E18093C10086E08093C2000895E0ECB9
S1130260F0E0908195FFFDCF8093C6000895CF9371
S1130270DF93EC018881882331F021960E942F01BD
S113028089918111FBCFDF91CF9108950E945A018A
S11302900C943B020E94340258F00E942D0240F05C
S11302A029F45F3F29F00C94240251110C946F023D
S11302B00C942A020E944C0268F39923B1F355234B
S11302C091F3951B550BBB27AA2762177307840765
S11302D038F09F5F5F4F220F331F441FAA1FA9F3FB
S11302E035D00E2E3AF0E0E832D091505040E695E9
S11302F0001CCAF72BD0FE2F29D0660F771F881F4A
S1130300BB1F261737074807AB07B0E809F0BB0B3C
S1130310802DBF01FF2793585F4F3AF09E3F510550
S113032078F00C9424020C946F025F3FE4F3983E3F
S1130330D4F3869577956795B795F7959F5FC9F739
S1130340880F911D9695879597F90895E1E0660FBA
S1130350771F881FBB1F621773078407BA0720F033
S1130360621B730B840BBA0BEE1F88F7E09508959C
S11303700E94540288F09F5798F0B92F9927B751DB
S1130380B0F0E1F0660F771F881F991F1AF0BA9535
S1130390C9F714C0B13091F00E946E02B1E0089523
S11303A00C946E02672F782F8827B85F39F0B93F15
S11303B0CCF3869577956795B395D9F73EF49095E8
S11303C08095709561957F4F8F4F9F4F0895E89466
S11303D009C097FB3EF490958095709561957F4F89
S11303E08F4F9F4F9923A9F0F92F96E9BB27939537
S11303F0F695879577956795B795F111F8CFFAF447
S1130400BB0F11F460FF1BC06F5F7F4F8F4F9F4F77
S113041016C0882311F096E911C0772321F09EE8D5
S1130420872F762F05C0662371F096E8862F70E03B
S113043060E02AF09A95660F771F881FDAF7880F15
S11304409695879597F9089597F99F6780E870E0E6
S113045060E008959FEF80EC089500240A94161636
S1130460170618060906089500240A94121613069E
S1130470140605060895092E0394000C11F488232C
S113048052F0BB0F40F4BF2B11F460FF04C06F5F48
S11304907F4F8F4F9F4F089557FD9058440F551F1E
S11304A059F05F3F71F04795880F97FB991F61F0F2
S11304B09F3F79F087950895121613061406551F69
S11304C0F2CF4695F1DF08C0161617061806991FD5
S11304D0F1CF86957105610508940895E894BB27CA
S11304E066277727CB0197F908950E9488020C9418
S11304F03B020E942D0238F00E94340220F0952322
S113050011F00C9424020C942A0211240C946F020E
S11305100E944C0270F3959FC1F3950F50E0551F54
S1130520629FF001729FBB27F00DB11D639FAA2744
S1130530F00DB11DAA1F649F6627B00DA11D661F93
S1130540829F2227B00DA11D621F739FB00DA11DB4
S1130550621F839FA00D611D221F749F3327A00D6E
S1130560611D231F849F600D211D822F762F6A2F0A
S113057011249F5750409AF0F1F088234AF0EE0F6F
S1130580FF1FBB1F661F771F881F91505040A9F79C
S11305909E3F510580F00C9424020C946F025F3F3F
S11305A0E4F3983ED4F3869577956795B795F795D8
S11305B0E7959F5FC1F7FE2B880F911D9695879550
S11305C097F90895A1E21A2EAA1BBB1BFD010DC0C9
S11305D0AA1FBB1FEE1FFF1FA217B307E407F507EF
S11305E020F0A21BB30BE40BF50B661F771F881FCB
S11305F0991F1A9469F760957095809590959B0161
S1130600AC01BD01CF010895AEE0B0E0EAE0F3E053
S11306100C94C5050D891E8986E08C831A83098391
S11306208FEF9FE79E838D83AE01475E5F4F6F8997
S1130630788DCE0101960E942603EF81F885E00FA4
S1130640F11F10822E96E4E00C94E105ABE0B0E0DB
S1130650ECE2F3E00C94B7056C017B018A01FC0128
S113066017821682838181FFCCC1CE0101963C01A1
S1130670F6019381F70193FD859193FF81917F01A9
S1130680882309F4BAC1853239F493FD859193FF27
S113069081917F01853229F4B60190E00E941D0505
S11306A0E7CF912C212C312CFFE1F315D8F08B32BC
S11306B079F038F4803279F08332A1F4232D20616B
S11306C01DC08D3261F0803369F4232D216016C082
S11306D0832D8260382EE32DE4603E2E2AC0F32D54
S11306E0F8601DC037FC2DC020ED280F2A3040F0E3
S11306F08E32B9F436FC81C1232D2064322E19C008
S113070036FE06C08AE0989E200D1124922E11C058
S1130710EAE02E9E200D1124222EF32DF0623F2EAE
S113072008C08C3621F4832D8068382E02C08836A8
S113073041F4F70193FD859193FF81917F0181112C
S1130740B3CF982F9F7D9554933028F40C5F1F4F9F
S11307509FE399830DC0833631F0833771F083357D
S113076009F059C021C0F801808189830E5F1F4FB1
S113077088248394912C530113C02801F2E04F0E76
S1130780511CF801A080B18036FE03C0692D70E0D1
S113079002C06FEF7FEFC5010E9412054C01820178
S11307A0F32DFF773F2E16C0280122E0420E511C84
S11307B0F801A080B18036FE03C0692D70E002C04C
S11307C06FEF7FEFC5010E9407054C01F32DF06820
S11307D03F2E820133FC1BC0822D90E088169906BF
S11307E0B0F4B60180E290E00E941D052A94F4CF93
S11307F0F50137FC859137FE81915F01B60190E0E8
S11308000E941D0521102A9421E0821A9108811466
S1130810910471F7E8C0843611F0893641F5F80186
S113082037FE07C060817181828193810C5F1F4F05
S113083008C060817181072E000C880B990B0E5F34
S11308401F4FF32DFF763F2E97FF09C0909580959B
S1130850709561957F4F8F4F9F4FF0683F2E2AE030
S113086030E0A3010E945905882E861845C08537BB
S113087031F4232D2F7EB22E2AE030E025C0932DB3
S1130880997FB92E8F36C1F018F4883579F0B5C048
S1130890803719F0883721F0B0C0E92FE061BE2E0F
S11308A0B4FE0DC0FB2DF460BF2E09C034FE0AC097
S11308B0292F2660B22E06C028E030E005C020E1D2
S11308C030E002C020E132E0F801B7FE07C06081E9
S11308D07181828193810C5F1F4F06C06081718199
S11308E080E090E00E5F1F4FA3010E945905882EFF
S11308F08618FB2DFF773F2E36FE0DC0232D2E7F4D
S1130900A22E891458F434FE0BC032FC09C0832D86
S11309108E7EA82E05C0B82CA32C03C0B82C01C011
S1130920B92CA4FE0FC0FE01E80DF11D80818033B7
S113093021F49A2D997EA92E09C0A2FE06C0B39473
S1130940B39404C08A2D867809F0B394A3FC11C033
S1130950A0FE06C0B21488F4280C922C9B180EC07A
S1130960B21460F4B60180E290E00E941D05B394D5
S1130970F7CFB21418F42B1802C0982C212CA4FE23
S113098010C0B60180E390E00E941D05A2FE17C0CE
S1130990A1FC03C088E790E002C088E590E0B601BE
S11309A00CC08A2D867859F0A1FE02C08BE201C0EA
S11309B080E2A7FC8DE2B60190E00E941D05891437
S11309C038F4B60180E390E00E941D059A94F7CFB5
S11309D08A94F301E80DF11D8081B60190E00E9434
S11309E01D058110F5CF222009F442CEB60180E224
S11309F090E00E941D052A94F6CFF6018681978126
S1130A0002C08FEF9FEF2B96E2E10C94D305FC011B
S1130A100590615070400110D8F7809590958E0F25
S1130A209F1F0895FC016150704001900110D8F798
S1130A30809590958E0F9F1F08950F931F93CF93CA
S1130A40DF93FB01238121FD03C08FEF9FEF2CC0B7
S1130A5022FF16C0468157812481358142175307EE
S1130A6044F4A081B1819D012F5F3F4F31832083E6
S1130A708C93268137812F5F3F4F3783268314C0A1
S1130A808B01EC01FB010084F185E02D0995892B94
S1130A90E1F6D80116968D919C91179701961796B9
S1130AA09C938E931697CE01DF91CF911F910F9156
S1130AB00895FA01AA27283051F1203181F1E894F0
S1130AC06F936E7F6E5F7F4F8F4F9F4FAF4FB1E03D
S1130AD03ED0B4E03CD0670F781F891F9A1FA11D38
S1130AE0680F791F8A1F911DA11D6A0F711D811D39
S1130AF0911DA11D20D009F468943F912AE0269FFE
S1130B0011243019305D3193DEF6CF010895462F5C
S1130B104770405D4193B3E00FD0C9F7F6CF462F3D
S1130B204F70405D4A3318F0495D31FD40524193A6
S1130B3002D0A9F7EACFB4E0A69597958795779563
S1130B406795BA95C9F700976105710508959B01EA
S1130B50AC010A2E06945795479537952795BA9573
S1130B60C9F7620F731F841F951FA01D08952F924C
S1130B703F924F925F926F927F928F929F92AF9229
S1130B80BF92CF92DF92EF92FF920F931F93CF9376
S1130B90DF93CDB7DEB7CA1BDB0B0FB6F894DEBF0D
S1130BA00FBECDBF09942A88398848885F846E8433
S1130BB07D848C849B84AA84B984C884DF80EE807D
S1130BC0FD800C811B81AA81B981CE0FD11D0FB686
S1130BD0F894DEBF0FBECDBFED010895F894FFCFAA
S1130BE057454C434F4D450D0A00256C75200D0AA1
S1050BF00000FF
S9030000FC
