S0180000726F746174696F6E5F636F6E74726F6C2E737265633C
S11300000C9434000C94A4000C9451000C945100F2
S11300100C9451000C9451000C9451000C94510018
S11300200C9451000C9451000C9451000C94CD008C
S11300300C9451000C9451000C9451000C945100F8
S11300400C9451000C9451000C9451000C945100E8
S11300500C9451000C9451000C9451000C945100D8
S11300600C9451000C94510011241FBECFEFD8E022
S1130070DEBFCDBF11E0A0E0B1E0E6E4F8E002C0ED
S113008005900D92A231B107D9F721E0A2E1B1E0C8
S113009001C01D92AC34B207E1F70E9453000C94E6
S11300A021040C940000219A52980E94F200E9E67F
S11300B0F0E0808183608083E89A0E94AE007894A7
S11300C080E091E00E9406010F2EF8EE8F2EF3E0FF
S11300D09F2EA12CB12CF02D0F2EFAE0CF2EF1E0A3
S11300E0DF2EF02D0F2EF2E1EF2EF1E0FF2EF02D9A
S11300F00E94C200C62FD72F182F092F60934401E6
S1130100709345018093460190934701A5019401A2
S11301100E941501672B682B692B51F70F931F93CE
S1130120DF93CF93DF92CF92FF92EF920E94370139
S1130130C7010E9406018DB79EB708960FB6F894C2
S11301409EBF0FBE8DBFD4CF1F920F920FB60F92DA
S113015011240F900FBE0F901F901895E1E8F0E066
S1130160808188608083AFE6B0E08C9182608C935C
S113017080E89EE390938900809388008081816069
S113018080830895F89460914801709149018091A9
S11301904A0190914B01789408951F920F920FB6E3
S11301A00F9211248F939F93AF93BF938091480133
S11301B090914901A0914A01B0914B010196A11D72
S11301C0B11D8093480190934901A0934A01B093D3
S11301D04B01BF91AF919F918F910F900FBE0F90E4
S11301E01F9018951092C50087E68093C40088E19B
S11301F08093C10086E08093C2000895E0ECF0E0B3
S1130200908195FFFDCF8093C6000895CF93DF932F
S1130210EC018881882331F021960E94FE008991A7
S11302208111FBCFDF91CF910895A1E21A2EAA1B71
S1130230BB1BFD010DC0AA1FBB1FEE1FFF1FA21792
S1130240B307E407F50720F0A21BB30BE40BF50B8F
S1130250661F771F881F991F1A9469F76095709518
S1130260809590959B01AC01BD01CF010895AEE04E
S1130270B0E0EDE3F1E00C94F8030D891E8986E00B
S11302808C831A8309838FEF9FE79E838D83AE014E
S1130290475E5F4F6F89788DCE0101960E945901A8
S11302A0EF81F885E00FF11F10822E96E4E00C94A4
S11302B01404ABE0B0E0EFE5F1E00C94EA036C0168
S11302C07B018A01FC0117821682838181FFCCC1E4
S11302D0CE0101963C01F6019381F70193FD8591CE
S11302E093FF81917F01882309F4BAC1853239F4DF
S11302F093FD859193FF81917F01853229F4B601A5
S113030090E00E945003E7CF912C212C312CFFE187
S1130310F315D8F08B3279F038F4803279F08332E7
S1130320A1F4232D20611DC08D3261F0803369F466
S1130330232D216016C0832D8260382EE32DE460C6
S11303403E2E2AC0F32DF8601DC037FC2DC020EDD1
S1130350280F2A3040F08E32B9F436FC81C1232DA7
S11303602064322E19C036FE06C08AE0989E200D05
S11303701124922E11C0EAE02E9E200D1124222E6B
S1130380F32DF0623F2E08C08C3621F4832D806853
S1130390382E02C0883641F4F70193FD859193FF0E
S11303A081917F018111B3CF982F9F7D9554933014
S11303B028F40C5F1F4F9FE399830DC0833631F0FF
S11303C0833771F0833509F059C021C0F801808169
S11303D089830E5F1F4F88248394912C530113C08B
S11303E02801F2E04F0E511CF801A080B18036FEC6
S11303F003C0692D70E002C06FEF7FEFC5010E945A
S113040045034C018201F32DFF773F2E16C02801CE
S113041022E0420E511CF801A080B18036FE03C0D8
S1130420692D70E002C06FEF7FEFC5010E943A03AF
S11304304C01F32DF0683F2E820133FC1BC0822D4A
S113044090E088169906B0F4B60180E290E00E942C
S113045050032A94F4CFF50137FC859137FE81913E
S11304605F01B60190E00E94500321102A9421E01C
S1130470821A91088114910471F7E8C0843611F04E
S1130480893641F5F80137FE07C0608171818281A8
S113049093810C5F1F4F08C060817181072E000C8F
S11304A0880B990B0E5F1F4FF32DFF763F2E97FF9E
S11304B009C090958095709561957F4F8F4F9F4FA0
S11304C0F0683F2E2AE030E0A3010E948C03882EBE
S11304D0861845C0853731F4232D2F7EB22E2AE0AD
S11304E030E025C0932D997FB92E8F36C1F018F4D2
S11304F0883579F0B5C0803719F0883721F0B0C05D
S1130500E92FE061BE2EB4FE0DC0FB2DF460BF2EBA
S113051009C034FE0AC0292F2660B22E06C028E086
S113052030E005C020E130E002C020E132E0F80113
S1130530B7FE07C060817181828193810C5F1F4F78
S113054006C06081718180E090E00E5F1F4FA301BF
S11305500E948C03882E8618FB2DFF773F2E36FED3
S11305600DC0232D2E7FA22E891458F434FE0BC007
S113057032FC09C0832D8E7EA82E05C0B82CA32C76
S113058003C0B82C01C0B92CA4FE0FC0FE01E80DB5
S1130590F11D8081803321F49A2D997EA92E09C002
S11305A0A2FE06C0B394B39404C08A2D867809F0E1
S11305B0B394A3FC11C0A0FE06C0B21488F4280CA6
S11305C0922C9B180EC0B21460F4B60180E290E045
S11305D00E945003B394F7CFB21418F42B1802C03E
S11305E0982C212CA4FE10C0B60180E390E00E9458
S11305F05003A2FE17C0A1FC03C088E790E002C02C
S113060088E590E0B6010CC08A2D867859F0A1FEE9
S113061002C08BE201C080E2A7FC8DE2B60190E04B
S11306200E945003891438F4B60180E390E00E94DC
S113063050039A94F7CF8A94F301E80DF11D808159
S1130640B60190E00E9450038110F5CF222009F4F6
S113065042CEB60180E290E00E9450032A94F6CF85
S1130660F6018681978102C08FEF9FEF2B96E2E11E
S11306700C940604FC010590615070400110D8F7F9
S1130680809590958E0F9F1F0895FC0161507040D6
S113069001900110D8F7809590958E0F9F1F0895B3
S11306A00F931F93CF93DF93FB01238121FD03C09D
S11306B08FEF9FEF2CC022FF16C046815781248103
S11306C035814217530744F4A081B1819D012F5F06
S11306D03F4F318320838C93268137812F5F3F4F97
S11306E03783268314C08B01EC01FB010084F18560
S11306F0E02D0995892BE1F6D80116968D919C91F0
S11307001797019617969C938E931697CE01DF91B7
S1130710CF911F910F910895FA01AA27283051F122
S1130720203181F1E8946F936E7F6E5F7F4F8F4F1E
S11307309F4FAF4FB1E03ED0B4E03CD0670F781F7D
S1130740891F9A1FA11D680F791F8A1F911DA11D62
S11307506A0F711D811D911DA11D20D009F468949B
S11307603F912AE0269F11243019305D3193DEF643
S1130770CF010895462F4770405D4193B3E00FD0F9
S1130780C9F7F6CF462F4F70405D4A3318F0495DE4
S113079031FD4052419302D0A9F7EACFB4E0A695C7
S11307A09795879577956795BA95C9F700976105E9
S11307B0710508959B01AC010A2E0694579547953F
S11307C037952795BA95C9F7620F731F841F951F34
S11307D0A01D08952F923F924F925F926F927F9245
S11307E08F929F92AF92BF92CF92DF92EF92FF923D
S11307F00F931F93CF93DF93CDB7DEB7CA1BDB0BE9
S11308000FB6F894DEBF0FBECDBF09942A8839888D
S113081048885F846E847D848C849B84AA84B98494
S1130820C884DF80EE80FD800C811B81AA81B981A0
S1130830CE0FD11D0FB6F894DEBF0FBECDBFED01B4
S10908400895F894FFCFB7
S113084657454C434F4D450D0A00256C75200D0A3E
S105085600009C
S9030000FC
