S0180000726F746174696F6E5F636F6E74726F6C2E737265633C
S11300000C9434000C9453000C9451000C94510043
S11300100C9451000C9451000C9451000C94510018
S11300200C9451000C9451000C9451000C94510008
S11300300C9451000C9451000C94D6010C94510072
S11300400C9451000C9451000C949F020C94510098
S11300500C9451000C9451000C9451000C945100D8
S11300600C9451000C94510011241FBECFEFD8E022
S1130070DEBFCDBF11E0A0E0B1E0E2E6FEE002C0E9
S113008005900D92AC32B107D9F722E0ACE2B1E0B1
S113009001C01D92A632B207E1F70E94F9000C9448
S11300A02F070C9400001F920F920FB60F92112489
S11300B0CF92DF92EF92FF922F933F934F935F93F0
S11300C06F937F938F939F93AF93BF93EF93FF931C
S11300D0F8948091AA018F5F873018F48093AA0165
S11300E036C01092AA010E94CB016B017C0160937F
S11300F09201709393018093940190939501809160
S1130100960190919701A0919801B0919901A7014E
S11301109601281B390B4A0B5B0BCA01B9010E94DB
S113012091039B01AC0160E070E68AE697E40E94CB
S1130130E9020E945B037093AE016093AD01C0922B
S11301409601D0929701E0929801F09299017894E7
S1130150FF91EF91BF91AF919F918F917F916F919B
S11301605F914F913F912F91FF90EF90DF90CF904F
S11301700F900FBE0F901F90189584B1826284B9BE
S113018052980E947602E9E6F0E0808183608083E1
S1130190E89A0E94BD010E949902789480E091E05F
S11301A00E948A0208958091AB019091AC01209144
S11301B0AD013091AE01AC014A5051092417350705
S11301C044F480912C01843678F48F5F80932C0161
S11301D00BC00A96821793073CF480912C01882364
S11301E019F0815080932C0180912C010E946A02A5
S11301F008950E94BD00312C0F2EFAE0EF2EF1E09D
S1130200FF2EF02DCEE2D1E005E111E09924939484
S1130210832CAC2EBD2E0F2EF0E2CF2EF1E0DF2E7C
S1130220F02D0E94CB016093A2017093A3018093EF
S1130230A4019093A5014090A6015090A70160905D
S1130240A8017090A9019B01AC0124193509460944
S1130250570929013A0134EF431631E0530661048A
S11302607104B0F06093A6017093A7018093A80174
S11302709093A90180912D01992D8111982D90932E
S11302802D01811102C02D9A01C02D980E94D30026
S11302900E94CB0160939A0170939B0180939C010F
S11302A090939D0140909E0150909F016090A00109
S11302B07090A1019B01AC01241935094609570925
S11302C029013A0134EF431631E053066104710405
S11302D078F160939E0170939F018093A0019093A5
S11302E0A1018091AE018F938091AD018F93FF9214
S11302F0EF92DF93CF930E9445048A2D9B2D0E9499
S11303008A0280912C011F928F931F930F93DF9386
S1130310CF930E9445048A2D9B2D0E948A022DB7FB
S11303203EB7245F3F4F0FB6F8943EBF0FBE2DBFBC
S11303308091BF01882309F474CF3092BF0182EC0D
S113034091E00E94E80282EC91E00E941F048093F5
S1130350AB019093AC019F938F93DF92CF92DF9385
S1130360CF930E944504CE010E948A020F900F9001
S11303700F900F900F900F9054CF84B5826084BD7E
S113038087EC87BDEEE6F0E080818260808385B5EE
S1130390826085BD0895F8946091BB017091BC01A1
S11303A08091BD019091BE01789408951F920F929F
S11303B00FB60F9211244F935F936F937F938F9394
S11303C09F93AF93BF938091B7019091B801A0918F
S11303D0B901B091BA010196A11DB11D8093B70175
S11303E09093B801A093B901B093BA018091B70179
S11303F09091B801A091B901B091BA010A97A105F1
S1130400B105D8F01092B7011092B8011092B90159
S11304101092BA018091BB019091BC01A091BD01E1
S1130420B091BE010196A11DB11D8093BB019093B3
S1130430BC01A093BD01B093BE018091B301909122
S1130440B401A091B501B091B6010196A11DB11DF1
S11304508093B3019093B401A093B501B093B60116
S11304608091B3019091B401A091B501B091B6010E
S113047084369105A105B10550F01092B301109294
S1130480B4011092B5011092B601299A16C0409198
S1130490B3015091B4016091B5017091B60180919E
S11304A0AF019091B001A091B101B091B201481790
S11304B059076A077B0708F02998BF91AF919F916C
S11304C08F917F916F915F914F910F900FBE0F901D
S11304D01F90189590E0A0E0B0E08093AF01909356
S11304E0B001A093B101B093B20108951092C50078
S11304F087E68093C40088E18093C10086E08093FE
S1130500C2000895E0ECF0E0908195FFFDCF809368
S1130510C6000895CF93DF93EC018881882331F0DE
S113052021960E94820289918111FBCFDF91CF91A4
S11305300895E1ECF0E080818068808308951F9243
S11305400F920FB60F9211242F934F935F938F93B3
S11305509F93EF93FF932091C6008091C0008C710C
S113056059F58091C0019091C1018436910520F024
S11305701092C1011092C0012A3079F4E091C001B7
S1130580F091C101EE53FE4F108281E08093BF01D0
S11305901092C1011092C0010FC08091C0019091CE
S11305A0C101AC014F5F5F4F5093C1014093C00143
S11305B0FC01EE53FE4F2083FF91EF919F918F91A9
S11305C05F914F912F910F900FBE0F901F90189530
S11305D008950E94FD020C94E5030E94DE0358F086
S11305E00E94D70340F029F45F3F29F00C94CE0316
S11305F051110C9419040C94D4030E94F60368F36B
S11306009923B1F3552391F3951B550BBB27AA27C7
S113061062177307840738F09F5F5F4F220F331F01
S1130620441FAA1FA9F335D00E2E3AF0E0E832D0C9
S113063091505040E695001CCAF72BD0FE2F29D0CC
S1130640660F771F881FBB1F261737074807AB079E
S1130650B0E809F0BB0B802DBF01FF2793585F4F13
S11306603AF09E3F510578F00C94CE030C94190493
S11306705F3FE4F3983ED4F3869577956795B795F5
S1130680F7959F5FC9F7880F911D9695879597F900
S11306900895E1E0660F771F881FBB1F6217730779
S11306A08407BA0720F0621B730B840BBA0BEE1F8E
S11306B088F7E09508950E9462036894B1110C9440
S11306C0190408950E94FE0388F09F5798F0B92FEB
S11306D09927B751B0F0E1F0660F771F881F991F73
S11306E01AF0BA95C9F714C0B13091F00E941804F9
S11306F0B1E008950C941804672F782F8827B85F09
S113070039F0B93FCCF3869577956795B395D9F7CA
S11307103EF490958095709561957F4F8F4F9F4FD4
S11307200895E89409C097FB3EF4909580957095E0
S113073061957F4F8F4F9F4F9923A9F0F92F96E929
S1130740BB279395F695879577956795B795F1119E
S1130750F8CFFAF4BB0F11F460FF1BC06F5F7F4F3B
S11307608F4F9F4F16C0882311F096E911C077234D
S113077021F09EE8872F762F05C0662371F096E856
S1130780862F70E060E02AF09A95660F771F881F25
S1130790DAF7880F9695879597F9089597F99F67E3
S11307A080E870E060E008959FEF80EC08950024F5
S11307B00A941616170618060906089500240A94C2
S11307C012161306140605060895092E0394000C48
S11307D011F4882352F0BB0F40F4BF2B11F460FFD7
S11307E004C06F5F7F4F8F4F9F4F089557FD905800
S11307F0440F551F59F05F3F71F04795880F97FBE1
S1130800991F61F09F3F79F087950895121613069A
S11308101406551FF2CF4695F1DF08C016161706C9
S11308201806991FF1CF86957105610508940895FE
S1130830E894BB2766277727CB0197F90895FC0135
S113084088279927E89421912032E9F3293010F080
S11308502E30C8F32B3241F02D3239F4689404C0A1
S11308600E943D04820F911D219120532A30C0F330
S11308701EF4909581959F4F08957AE0979F902D4F
S1130880879F802D910D11240895AEE0B0E0EBE434
S1130890F4E00C9406070D891E8986E08C831A8384
S11308A009838FEF9FE79E838D83AE01475E5F4F81
S11308B06F89788DCE0101960E946704EF81F885D7
S11308C0E00FF11F10822E96E4E00C942207ABE0B7
S11308D0B0E0EDE6F4E00C94F8066C017B018A01CB
S11308E0FC0117821682838181FFCCC1CE0101965F
S11308F03C01F6019381F70193FD859193FF81916A
S11309007F01882309F4BAC1853239F493FD8591B6
S113091093FF81917F01853229F4B60190E00E9412
S11309205E06E7CF912C212C312CFFE1F315D8F092
S11309308B3279F038F4803279F08332A1F4232DAC
S113094020611DC08D3261F0803369F4232D216054
S113095016C0832D8260382EE32DE4603E2E2AC01B
S1130960F32DF8601DC037FC2DC020ED280F2A3070
S113097040F08E32B9F436FC81C1232D2064322E2E
S113098019C036FE06C08AE0989E200D1124922ECE
S113099011C0EAE02E9E200D1124222EF32DF062C8
S11309A03F2E08C08C3621F4832D8068382E02C077
S11309B0883641F4F70193FD859193FF81917F017E
S11309C08111B3CF982F9F7D9554933028F40C5FF9
S11309D01F4F9FE399830DC0833631F0833771F045
S11309E0833509F059C021C0F801808189830E5FE5
S11309F01F4F88248394912C530113C02801F2E0E3
S1130A004F0E511CF801A080B18036FE03C0692D41
S1130A1070E002C06FEF7FEFC5010E9453064C01E6
S1130A208201F32DFF773F2E16C0280122E0420EEB
S1130A30511CF801A080B18036FE03C0692D70E01E
S1130A4002C06FEF7FEFC5010E9448064C01F32DF1
S1130A50F0683F2E820133FC1BC0822D90E0881683
S1130A609906B0F4B60180E290E00E945E062A94F2
S1130A70F4CFF50137FC859137FE81915F01B60112
S1130A8090E00E945E0621102A9421E0821A9108C7
S1130A908114910471F7E8C0843611F0893641F568
S1130AA0F80137FE07C060817181828193810C5FF8
S1130AB01F4F08C060817181072E000C880B990BB1
S1130AC00E5F1F4FF32DFF763F2E97FF09C09095C1
S1130AD08095709561957F4F8F4F9F4FF0683F2EA3
S1130AE02AE030E0A3010E949A06882E861845C0A9
S1130AF0853731F4232D2F7EB22E2AE030E025C035
S1130B00932D997FB92E8F36C1F018F4883579F07A
S1130B10B5C0803719F0883721F0B0C0E92FE06103
S1130B20BE2EB4FE0DC0FB2DF460BF2E09C034FEF2
S1130B300AC0292F2660B22E06C028E030E005C086
S1130B4020E130E002C020E132E0F801B7FE07C046
S1130B5060817181828193810C5F1F4F06C0608127
S1130B60718180E090E00E5F1F4FA3010E949A06FE
S1130B70882E8618FB2DFF773F2E36FE0DC0232DC1
S1130B802E7FA22E891458F434FE0BC032FC09C007
S1130B90832D8E7EA82E05C0B82CA32C03C0B82CA0
S1130BA001C0B92CA4FE0FC0FE01E80DF11D808127
S1130BB0803321F49A2D997EA92E09C0A2FE06C085
S1130BC0B394B39404C08A2D867809F0B394A3FC3B
S1130BD011C0A0FE06C0B21488F4280C922C9B18F5
S1130BE00EC0B21460F4B60180E290E00E945E068A
S1130BF0B394F7CFB21418F42B1802C0982C212CFC
S1130C00A4FE10C0B60180E390E00E945E06A2FE3E
S1130C1017C0A1FC03C088E790E002C088E590E01B
S1130C20B6010CC08A2D867859F0A1FE02C08BE271
S1130C3001C080E2A7FC8DE2B60190E00E945E064E
S1130C40891438F4B60180E390E00E945E069A9419
S1130C50F7CF8A94F301E80DF11D8081B60190E08D
S1130C600E945E068110F5CF222009F442CEB6011F
S1130C7080E290E00E945E062A94F6CFF601868117
S1130C80978102C08FEF9FEF2B96E2E10C9414073B
S1130C90FC010590615070400110D8F78095909543
S1130CA08E0F9F1F0895FC01615070400190011048
S1130CB0D8F7809590958E0F9F1F08950F931F93DB
S1130CC0CF93DF93FB01238121FD03C08FEF9FEFBF
S1130CD02CC022FF16C046815781248135814217DA
S1130CE0530744F4A081B1819D012F5F3F4F3183AD
S1130CF020838C93268137812F5F3F4F3783268350
S1130D0014C08B01EC01FB010084F185E02D0995F1
S1130D10892BE1F6D80116968D919C91179701962F
S1130D2017969C938E931697CE01DF91CF911F91C6
S1130D300F910895FA01AA27283051F1203181F149
S1130D40E8946F936E7F6E5F7F4F8F4F9F4FAF4FCF
S1130D50B1E03ED0B4E03CD0670F781F891F9A1FE2
S1130D60A11D680F791F8A1F911DA11D6A0F711D96
S1130D70811D911DA11D20D009F468943F912AE0A2
S1130D80269F11243019305D3193DEF6CF0108958A
S1130D90462F4770405D4193B3E00FD0C9F7F6CFBB
S1130DA0462F4F70405D4A3318F0495D31FD405283
S1130DB0419302D0A9F7EACFB4E0A6959795879519
S1130DC077956795BA95C9F70097610571050895F8
S1130DD09B01AC010A2E06945795479537952795A4
S1130DE0BA95C9F7620F731F841F951FA01D08953C
S1130DF02F923F924F925F926F927F928F929F9227
S1130E00AF92BF92CF92DF92EF92FF920F931F9314
S1130E10CF93DF93CDB7DEB7CA1BDB0B0FB6F894C5
S1130E20DEBF0FBECDBF09942A88398848885F8405
S1130E306E847D848C849B84AA84B984C884DF8076
S1130E40EE80FD800C811B81AA81B981CE0FD11D5A
S1130E500FB6F894DEBF0FBECDBFED010895F89430
S1050E60FFCFBE
S1130E6257454C434F4D450D0A0052504D3A2025EB
S1130E7275200D0A0050574D3A202575200D0A00A1
S10F0E825350203D202575200D0A00006F
S9030000FC
